010000031000795011BATATA SALSA AIPO kg                              0000030000000003110000000000000000            000000000000000000000000000000000000
000000031000795011BATATA SALSA AIPO kg                              0000030000000003110000000000000000            000000000000000000000000000000000000
010000079004937000Z*QUEIJO GRAN MESTRE TIPOGRANA kg                 0000070000000007010000000000000000            000000000000000000000000000000000000
000000079004937000Z*QUEIJO GRAN MESTRE TIPOGRANA kg                 0000070000000007010000000000000000            000000000000000000000000000000000000
010000147003487006Z*PEITO CHESTER PERDIGAO DEFUMADO kg              0000140000000014110000000000000000            000000000000000000000000000000000000
000000147003487006Z*PEITO CHESTER PERDIGAO DEFUMADO kg              0000140000000014110000000000000000            000000000000000000000000000000000000
010000154004545000ZIN PAO MINI CHURROS DOCELEITE kg                 0000000000000015010000000000000000            000000000000000000000000000000000000
000000154004545000ZIN PAO MINI CHURROS DOCELEITE kg                 0000000000000015010000000000000000            000000000000000000000000000000000000
010000192001297011Z*PEITO BATAVO COZIDO FRESKI FGO kg               0000190000000019110000000000000000            000000000000000000000000000000000000
000000192001297011Z*PEITO BATAVO COZIDO FRESKI FGO kg               0000190000000019110000000000000000            000000000000000000000000000000000000
010000215001695006APRESUNTADO FRIMESA FRILANCHE kg                  0000210000000021110000000000000000            000000000000000000000000000000000000
000000215001695006APRESUNTADO FRIMESA FRILANCHE kg                  0000210000000021110000000000000000            000000000000000000000000000000000000
010000253002097006PRESUNTO FRIMESA COZIDO kg                        0000250000000025110000000000000000            000000000000000000000000000000000000
000000253002097006PRESUNTO FRIMESA COZIDO kg                        0000250000000025110000000000000000            000000000000000000000000000000000000
010000284002897006Z*PRESUNTO PERDIGAO COZIDO kg                     0000280000000028110000000000000000            000000000000000000000000000000000000
000000284002897006Z*PRESUNTO PERDIGAO COZIDO kg                     0000280000000028110000000000000000            000000000000000000000000000000000000
010000352000953000Z*PE MOLEQUE kg                                   0000000000000035010000000000000000            000000000000000000000000000000000000
000000352000953000Z*PE MOLEQUE kg                                   0000000000000035010000000000000000            000000000000000000000000000000000000
010000376002795002CAROL CUCA ALEMA kg                               0000370000000037110000000000000000            000000000000000000000000000000000000
000000376002795002CAROL CUCA ALEMA kg                               0000370000000037110000000000000000            000000000000000000000000000000000000
010000406000795006Z*MORTADELA CONFIANCA C/Gkg                       0000400000000040110000000000000000            000000000000000000000000000000000000
000000406000795006Z*MORTADELA CONFIANCA C/Gkg                       0000400000000040110000000000000000            000000000000000000000000000000000000
010000413000397000CEBOLA GRAUDA kg                                  0000410000000041010000000000000000            000000000000000000000000000000000000
000000413000397000CEBOLA GRAUDA kg                                  0000410000000041010000000000000000            000000000000000000000000000000000000
010000420003897006RETALHO QUEIJO kg.                                0000420000000042110000000000000000            000000000000000000000000000000000000
000000420003897006RETALHO QUEIJO kg.                                0000420000000042110000000000000000            000000000000000000000000000000000000
010000437002722000Z*QUEIJO WILLY FRITSCHE PARMESAO                  0000430000000043010000000000000000            000000000000000000000000000000000000
000000437002722000Z*QUEIJO WILLY FRITSCHE PARMESAO                  0000430000000043010000000000000000            000000000000000000000000000000000000
010000444006457000QUEIJO ITALICO PREDILETO kg                       0000440000000044010000000000000000            000000000000000000000000000000000000
000000444006457000QUEIJO ITALICO PREDILETO kg                       0000440000000044010000000000000000            000000000000000000000000000000000000
010000468004937000Z*QUEIJO COLONIAL LASAROLI REDONDO kg             0000000000000046010000000000000000            000000000000000000000000000000000000
000000468004937000Z*QUEIJO COLONIAL LASAROLI REDONDO kg             0000000000000046010000000000000000            000000000000000000000000000000000000
010000482004997006Z*QUEIJO MUSSARELA TIROL kg                       0000480000000048110000000000000000            000000000000000000000000000000000000
000000482004997006Z*QUEIJO MUSSARELA TIROL kg                       0000480000000048110000000000000000            000000000000000000000000000000000000
010000505005347006Z*QUEIJO PRATO TIROL  kg                          0000500000000050110000000000000000            000000000000000000000000000000000000
000000505005347006Z*QUEIJO PRATO TIROL  kg                          0000500000000050110000000000000000            000000000000000000000000000000000000
010000512001865000Z*QUEIJO MUSSARELA PREDILETO FATIADO              0000510000000051010000000000000000            000000000000000000000000000000000000
000000512001865000Z*QUEIJO MUSSARELA PREDILETO FATIADO              0000510000000051010000000000000000            000000000000000000000000000000000000
010000529003687006QUEIJO MUSSARELA PREDILETO kg                     0000520000000052110000000000000000            000000000000000000000000000000000000
000000529003687006QUEIJO MUSSARELA PREDILETO kg                     0000520000000052110000000000000000            000000000000000000000000000000000000
010000536001865000Z*QUEIJO PRATO PREDILETO FATIADO kg               0000530000000053010000000000000000            000000000000000000000000000000000000
000000536001865000Z*QUEIJO PRATO PREDILETO FATIADO kg               0000530000000053010000000000000000            000000000000000000000000000000000000
010000543003687006QUEIJO PRATO PREDILETO kg                         0000540000000054110000000000000000            000000000000000000000000000000000000
000000543003687006QUEIJO PRATO PREDILETO kg                         0000540000000054110000000000000000            000000000000000000000000000000000000
010000567002997007LINGUICA CALABRESA FRIMESA kg                     0000560000000056110000000000000000            000000000000000000000000000000000000
000000567002997007LINGUICA CALABRESA FRIMESA kg                     0000560000000056110000000000000000            000000000000000000000000000000000000
010000581005547000QUEIJO LANCHE MUSSARELA HOLANDES kg               0000580000000058010000000000000000            000000000000000000000000000000000000
000000581005547000QUEIJO LANCHE MUSSARELA HOLANDES kg               0000580000000058010000000000000000            000000000000000000000000000000000000
010000604003997003CONTRA FILE BOVINO kg                             0000600000000060110000000000000000            000000000000000000000000000000000000
000000604003997003CONTRA FILE BOVINO kg                             0000600000000060110000000000000000            000000000000000000000000000000000000
010000628005947030CHARQUE CAROL 1º BOVINO kg                        0000620000000062110000000000000000            000000000000000000000000000000000000
000000628005947030CHARQUE CAROL 1º BOVINO kg                        0000620000000062110000000000000000            000000000000000000000000000000000000
010000635002997003COSTELA BOVINA C/OSSO kg                          0000630000000063110000000000000000            000000000000000000000000000000000000
000000635002997003COSTELA BOVINA C/OSSO kg                          0000630000000063110000000000000000            000000000000000000000000000000000000
010000659002493003PEITO BOVINO C/OSSO kg                            0000650000000065110000000000000000            000000000000000000000000000000000000
000000659002493003PEITO BOVINO C/OSSO kg                            0000650000000065110000000000000000            000000000000000000000000000000000000
010000666002695003LOMBO BOVINO C/OSSO kg                            0000660000000066110000000000000000            000000000000000000000000000000000000
000000666002695003LOMBO BOVINO C/OSSO kg                            0000660000000066110000000000000000            000000000000000000000000000000000000
010000673003397003PALETA BOVINA 7 C/OSSO kg                         0000670000000067110000000000000000            000000000000000000000000000000000000
000000673003397003PALETA BOVINA 7 C/OSSO kg                         0000670000000067110000000000000000            000000000000000000000000000000000000
010000680002897003CARNE MOIDA DE 2º kg                              0000680000000068110000000000000000            000000000000000000000000000000000000
000000680002897003CARNE MOIDA DE 2º kg                              0000680000000068110000000000000000            000000000000000000000000000000000000
010000697003987003CARNE MOIDA 1º BOVINA kg                          0000690000000069110000000000000000            000000000000000000000000000000000000
000000697003987003CARNE MOIDA 1º BOVINA kg                          0000690000000069110000000000000000            000000000000000000000000000000000000
010000703003887003FILE SIMPLES BOVINO kg                            0000700000000070110000000000000000            000000000000000000000000000000000000
000000703003887003FILE SIMPLES BOVINO kg                            0000700000000070110000000000000000            000000000000000000000000000000000000
010000710004687003FILE DUPLO BOVINO kg                              0000710000000071110000000000000000            000000000000000000000000000000000000
000000710004687003FILE DUPLO BOVINO kg                              0000710000000071110000000000000000            000000000000000000000000000000000000
010000727004687003ALCATRA C/OSSO BOVINO kg                          0000720000000072110000000000000000            000000000000000000000000000000000000
000000727004687003ALCATRA C/OSSO BOVINO kg                          0000720000000072110000000000000000            000000000000000000000000000000000000
010000734007957000FILE MIGNON BOV. FRAC. kg                         0000000000000073010000000000000000            000000000000000000000000000000000000
000000734007957000FILE MIGNON BOV. FRAC. kg                         0000000000000073010000000000000000            000000000000000000000000000000000000
010000741004327000FRALDINHA BOVINA kg                               0000740000000074010000000000000000            000000000000000000000000000000000000
000000741004327000FRALDINHA BOVINA kg                               0000740000000074010000000000000000            000000000000000000000000000000000000
010000765002997003TATU BOVINO kg                                    0000760000000076110000000000000000            000000000000000000000000000000000000
000000765002997003TATU BOVINO kg                                    0000760000000076110000000000000000            000000000000000000000000000000000000
010000772003887003PATINHO BOVINO kg                                 0000770000000077110000000000000000            000000000000000000000000000000000000
000000772003887003PATINHO BOVINO kg                                 0000770000000077110000000000000000            000000000000000000000000000000000000
010000789003687003COXAO FORA BOVINO kg                              0000780000000078110000000000000000            000000000000000000000000000000000000
000000789003687003COXAO FORA BOVINO kg                              0000780000000078110000000000000000            000000000000000000000000000000000000
010000796003887003COXAO MOLE BOVINO kg                              0000790000000079110000000000000000            000000000000000000000000000000000000
000000796003887003COXAO MOLE BOVINO kg                              0000790000000079110000000000000000            000000000000000000000000000000000000
010000819003997000BANANINHA BOVINO kg                               0000000000000081010000000000000000            000000000000000000000000000000000000
000000819003997000BANANINHA BOVINO kg                               0000000000000081010000000000000000            000000000000000000000000000000000000
010000840000997000GENGIBRE                                          0000000000000084010000000000000000            000000000000000000000000000000000000
000000840000997000GENGIBRE                                          0000000000000084010000000000000000            000000000000000000000000000000000000
010000857001497000MELAO REDE PINGO MEL kg                           0000000000000085010000000000000000            000000000000000000000000000000000000
000000857001497000MELAO REDE PINGO MEL kg                           0000000000000085010000000000000000            000000000000000000000000000000000000
010000864009975000FILE SALMAO KOMDELLI kg                           0000000000000086010000000000000000            000000000000000000000000000000000000
000000864009975000FILE SALMAO KOMDELLI kg                           0000000000000086010000000000000000            000000000000000000000000000000000000
010000901001197000BATATA YACON kg                                   0000900000000090010000000000000000            000000000000000000000000000000000000
000000901001197000BATATA YACON kg                                   0000900000000090010000000000000000            000000000000000000000000000000000000
010000925003493060CAROL DOCE AMENDOIM                               0000920000000092110000000000000000            000000000000000000000000000000000000
000000925003493060CAROL DOCE AMENDOIM                               0000920000000092110000000000000000            000000000000000000000000000000000000
010000949001593004CAROL PAO LINGUICA kg                             0000940000000094110000000000000000            000000000000000000000000000000000000
000000949001593004CAROL PAO LINGUICA kg                             0000940000000094110000000000000000            000000000000000000000000000000000000
010000956001397000BANANA MACA                                       0000950000000095010000000000000000            000000000000000000000000000000000000
000000956001397000BANANA MACA                                       0000950000000095010000000000000000            000000000000000000000000000000000000
010000970003197006MORTADELA PERDIGAO BOLOGNA OURO kg                0000970000000097110000000000000000            000000000000000000000000000000000000
000000970003197006MORTADELA PERDIGAO BOLOGNA OURO kg                0000970000000097110000000000000000            000000000000000000000000000000000000
010000994001493000Z*QUEIJO RICOTA LASAROLI C/SAL kg                 0000990000000099010000000000000000            000000000000000000000000000000000000
000000994001493000Z*QUEIJO RICOTA LASAROLI C/SAL kg                 0000990000000099010000000000000000            000000000000000000000000000000000000
010001007002695000Z*SOBREPALETA SUINA PAMPLONA TEMPERAD kg          0001000000000100010000000000000000            000000000000000000000000000000000000
000001007002695000Z*SOBREPALETA SUINA PAMPLONA TEMPERAD kg          0001000000000100010000000000000000            000000000000000000000000000000000000
010001014001097030Z*KIT FEIJOADA DEFUMADO                           0001010000000101110000000000000000            000000000000000000000000000000000000
000001014001097030Z*KIT FEIJOADA DEFUMADO                           0001010000000101110000000000000000            000000000000000000000000000000000000
010001038002750000Z*NOZES S/CASCA 500g INTEIRA                      0000000000000103010000000000000000            000000000000000000000000000000000000
000001038002750000Z*NOZES S/CASCA 500g INTEIRA                      0000000000000103010000000000000000            000000000000000000000000000000000000
010001052002997060CAROL DOCE CRISTAL kg                             0001050000000105110000000000000000            000000000000000000000000000000000000
000001052002997060CAROL DOCE CRISTAL kg                             0001050000000105110000000000000000            000000000000000000000000000000000000
010001083004997004CAROL BOLO FLORESTA NEGRAkg                       0001080000000108110000000000000000            000000000000000000000000000000000000
000001083004997004CAROL BOLO FLORESTA NEGRAkg                       0001080000000108110000000000000000            000000000000000000000000000000000000
010001113000897007Z*SALSICHA PERDIGAO RESFRIADA HOTDOG kg           0001110000000111110000000000000000            000000000000000000000000000000000000
000001113000897007Z*SALSICHA PERDIGAO RESFRIADA HOTDOG kg           0001110000000111110000000000000000            000000000000000000000000000000000000
010001144000695007Z*SALSICHA COPACOL HOT DOG kg                     0001140000000114110000000000000000            000000000000000000000000000000000000
000001144000695007Z*SALSICHA COPACOL HOT DOG kg                     0001140000000114110000000000000000            000000000000000000000000000000000000
010001199002593003FIGADO BOVINO kg                                  0001190000000119110000000000000000            000000000000000000000000000000000000
000001199002593003FIGADO BOVINO kg                                  0001190000000119110000000000000000            000000000000000000000000000000000000
010001205003487003RABADA BOVINA kg                                  0001200000000120110000000000000000            000000000000000000000000000000000000
000001205003487003RABADA BOVINA kg                                  0001200000000120110000000000000000            000000000000000000000000000000000000
010001212000997003RIM BOVINO kg                                     0001210000000121110000000000000000            000000000000000000000000000000000000
000001212000997003RIM BOVINO kg                                     0001210000000121110000000000000000            000000000000000000000000000000000000
010001229001387003CORACAO BOVINO kg                                 0001220000000122110000000000000000            000000000000000000000000000000000000
000001229001387003CORACAO BOVINO kg                                 0001220000000122110000000000000000            000000000000000000000000000000000000
010001236001257000Z*LINGUA BOVINA CONGELADAkg                       0000000000000123010000000000000000            000000000000000000000000000000000000
000001236001257000Z*LINGUA BOVINA CONGELADAkg                       0000000000000123010000000000000000            000000000000000000000000000000000000
010001243001987003DOBRADINHA BOVINA kg                              0001240000000124110000000000000000            000000000000000000000000000000000000
000001243001987003DOBRADINHA BOVINA kg                              0001240000000124110000000000000000            000000000000000000000000000000000000
010001298001475010Z*SCHWADAMARA SCHWEIGERT                          0001290000000129110000000000000000            000000000000000000000000000000000000
000001298001475010Z*SCHWADAMARA SCHWEIGERT                          0001290000000129110000000000000000            000000000000000000000000000000000000
010001304002397000Z*TORRESMO PRENSADO WEBERkg                       0000000000000130010000000000000000            000000000000000000000000000000000000
000001304002397000Z*TORRESMO PRENSADO WEBERkg                       0000000000000130010000000000000000            000000000000000000000000000000000000
010001311001997004CAROL MUFFINS kg                                  0001310000000131110000000000000000            000000000000000000000000000000000000
000001311001997004CAROL MUFFINS kg                                  0001310000000131110000000000000000            000000000000000000000000000000000000
010001328000695003Z*MIUDO SUINO kg                                  0001320000000132110000000000000000            000000000000000000000000000000000000
000001328000695003Z*MIUDO SUINO kg                                  0001320000000132110000000000000000            000000000000000000000000000000000000
010001335001493000JOELHO SUINO CONG. kg                             0001330000000133010000000000000000            000000000000000000000000000000000000
000001335001493000JOELHO SUINO CONG. kg                             0001330000000133010000000000000000            000000000000000000000000000000000000
010001342000997000PE SUINO CONG.kg                                  0001340000000134010000000000000000            000000000000000000000000000000000000
000001342000997000PE SUINO CONG.kg                                  0001340000000134010000000000000000            000000000000000000000000000000000000
010001359002987000LOMBO SUINO S/OSSO CONG. kg                       0000000000000135010000000000000000            000000000000000000000000000000000000
000001359002987000LOMBO SUINO S/OSSO CONG. kg                       0000000000000135010000000000000000            000000000000000000000000000000000000
010001366002785000COSTELA SUINA FRIMESA CONGELADA kg                0000000000000136010000000000000000            000000000000000000000000000000000000
000001366002785000COSTELA SUINA FRIMESA CONGELADA kg                0000000000000136010000000000000000            000000000000000000000000000000000000
010001373001695000BISTECA SUINA S/PELE CONG.kg                      0001370000000137010000000000000000            000000000000000000000000000000000000
000001373001695000BISTECA SUINA S/PELE CONG.kg                      0001370000000137010000000000000000            000000000000000000000000000000000000
010001403002997000CAROL PASTELZINHO BANANA kg                       0001400000000140010000000000000000            000000000000000000000000000000000000
000001403002997000CAROL PASTELZINHO BANANA kg                       0001400000000140010000000000000000            000000000000000000000000000000000000
010001427002695000AVE CHESTER PERDIGAO kg                           0000000000000142010000000000000000            000000000000000000000000000000000000
000001427002695000AVE CHESTER PERDIGAO kg                           0000000000000142010000000000000000            000000000000000000000000000000000000
010001441002593003MP CAROL MASSA CASQUINHA kg                       0001440000000144110000000000000000            000000000000000000000000000000000000
000001441002593003MP CAROL MASSA CASQUINHA kg                       0001440000000144110000000000000000            000000000000000000000000000000000000
010001472000493000Z*MIUDO FRANGO                                    0000000000000147010000000000000000            000000000000000000000000000000000000
000001472000493000Z*MIUDO FRANGO                                    0000000000000147010000000000000000            000000000000000000000000000000000000
010001489002585005CAROL BOLO INGLES FORMIGUEIRO kg                  0001480000000148110000000000000000            000000000000000000000000000000000000
000001489002585005CAROL BOLO INGLES FORMIGUEIRO kg                  0001480000000148110000000000000000            000000000000000000000000000000000000
010001496002785005CAROL BOLO INGLES MESCLADO kg                     0001490000000149110000000000000000            000000000000000000000000000000000000
000001496002785005CAROL BOLO INGLES MESCLADO kg                     0001490000000149110000000000000000            000000000000000000000000000000000000
010001519000755000Z*MOELA PERU PERDIGAO kg                          0000000000000151010000000000000000            000000000000000000000000000000000000
000001519000755000Z*MOELA PERU PERDIGAO kg                          0000000000000151010000000000000000            000000000000000000000000000000000000
010001533002987005CAROL BOLO INGLES CHOCOLATE kg                    0001530000000153110000000000000000            000000000000000000000000000000000000
000001533002987005CAROL BOLO INGLES CHOCOLATE kg                    0001530000000153110000000000000000            000000000000000000000000000000000000
010001540000247000Z*OSSO SERRADO                                    0000000000000154010000000000000000            000000000000000000000000000000000000
000001540000247000Z*OSSO SERRADO                                    0000000000000154010000000000000000            000000000000000000000000000000000000
010001557001695005Z*CAROL BOLO INGLES BAUNILHA kg                   0001550000000155110000000000000000            000000000000000000000000000000000000
000001557001695005Z*CAROL BOLO INGLES BAUNILHA kg                   0001550000000155110000000000000000            000000000000000000000000000000000000
010001564002583005CAROL BOLO INGLES LARANJAkg                       0001560000000156110000000000000000            000000000000000000000000000000000000
000001564002583005CAROL BOLO INGLES LARANJAkg                       0001560000000156110000000000000000            000000000000000000000000000000000000
010001595001097000FRANGO COPACOL S/MIUDOS kg                        0000000000000159010000000000000000            000000000000000000000000000000000000
000001595001097000FRANGO COPACOL S/MIUDOS kg                        0000000000000159010000000000000000            000000000000000000000000000000000000
010001618001997002Z*CAROL NOZINHO kg                                0001610000000161110000000000000000            000000000000000000000000000000000000
000001618001997002Z*CAROL NOZINHO kg                                0001610000000161110000000000000000            000000000000000000000000000000000000
010001625002997045Z*CAROL CORUJINHA DOCE kg                         0001620000000162110000000000000000            000000000000000000000000000000000000
000001625002997045Z*CAROL CORUJINHA DOCE kg                         0001620000000162110000000000000000            000000000000000000000000000000000000
010001632002287004CAROL PAO XIS MINI kg                             0001630000000163110000000000000000            000000000000000000000000000000000000
000001632002287004CAROL PAO XIS MINI kg                             0001630000000163110000000000000000            000000000000000000000000000000000000
010001649001597045CAROL RINHALEM kg                                 0001640000000164110000000000000000            000000000000000000000000000000000000
000001649001597045CAROL RINHALEM kg                                 0001640000000164110000000000000000            000000000000000000000000000000000000
010001656002997060CAROL JOELHINHO kg                                0001650000000165110000000000000000            000000000000000000000000000000000000
000001656002997060CAROL JOELHINHO kg                                0001650000000165110000000000000000            000000000000000000000000000000000000
010001663001695005Z*CAROL BOLO INGLES COCO kg                       0001660000000166110000000000000000            000000000000000000000000000000000000
000001663001695005Z*CAROL BOLO INGLES COCO kg                       0001660000000166110000000000000000            000000000000000000000000000000000000
010001694002685060CAROL AMENDOA BRANCA A GRANEL                     0001690000000169110000000000000000            000000000000000000000000000000000000
000001694002685060CAROL AMENDOA BRANCA A GRANEL                     0001690000000169110000000000000000            000000000000000000000000000000000000
010001717003785004CAROL BOLO MILHO kg                               0001710000000171110000000000000000            000000000000000000000000000000000000
000001717003785004CAROL BOLO MILHO kg                               0001710000000171110000000000000000            000000000000000000000000000000000000
010001724001995000ZIN PAO CROQUETE CARNE/REQUEIJAO kg               0000000000000172010000000000000000            000000000000000000000000000000000000
000001724001995000ZIN PAO CROQUETE CARNE/REQUEIJAO kg               0000000000000172010000000000000000            000000000000000000000000000000000000
010001779001987000QUEIJO RICOTA PREDILETO kg                        0001770000000177010000000000000000            000000000000000000000000000000000000
000001779001987000QUEIJO RICOTA PREDILETO kg                        0001770000000177010000000000000000            000000000000000000000000000000000000
010001786003493003CAROL BRIGADEIRO CHOCOLATE kg                     0001780000000178110000000000000000            000000000000000000000000000000000000
000001786003493003CAROL BRIGADEIRO CHOCOLATE kg                     0001780000000178110000000000000000            000000000000000000000000000000000000
010001809007547000QUEIJO MINAS POSSAMAI TEMPERADO kg                0001800000000180010000000000000000            000000000000000000000000000000000000
000001809007547000QUEIJO MINAS POSSAMAI TEMPERADO kg                0001800000000180010000000000000000            000000000000000000000000000000000000
010001823005537000Z*SALAME AURORA TIPO ITALIANO kg                  0000000000000182010000000000000000            000000000000000000000000000000000000
000001823005537000Z*SALAME AURORA TIPO ITALIANO kg                  0000000000000182010000000000000000            000000000000000000000000000000000000
010001830002493002Z*CAROL QUICHE BROCOLIS kg                        0001830000000183110000000000000000            000000000000000000000000000000000000
000001830002493002Z*CAROL QUICHE BROCOLIS kg                        0001830000000183110000000000000000            000000000000000000000000000000000000
010001854003493003CAROL BRIGADEIRO BEIJINHOkg                       0001850000000185110000000000000000            000000000000000000000000000000000000
000001854003493003CAROL BRIGADEIRO BEIJINHOkg                       0001850000000185110000000000000000            000000000000000000000000000000000000
010001861002997005CAROL TORTA BOLACHA kg                            0001860000000186110000000000000000            000000000000000000000000000000000000
000001861002997005CAROL TORTA BOLACHA kg                            0001860000000186110000000000000000            000000000000000000000000000000000000
010001878003493002CAROL X-SALADA kg                                 0001870000000187110000000000000000            000000000000000000000000000000000000
000001878003493002CAROL X-SALADA kg                                 0001870000000187110000000000000000            000000000000000000000000000000000000
010001885003785002CAROL CUCA QUADRADA QUEIJINHO kg                  0001880000000188110000000000000000            000000000000000000000000000000000000
000001885003785002CAROL CUCA QUADRADA QUEIJINHO kg                  0001880000000188110000000000000000            000000000000000000000000000000000000
010001892002997003CAROL TRANCA SONHO VALSA kg                       0001890000000189110000000000000000            000000000000000000000000000000000000
000001892002997003CAROL TRANCA SONHO VALSA kg                       0001890000000189110000000000000000            000000000000000000000000000000000000
010001939000397000Z*SALSICHAO COPACOL ORIONkg                       0000000000000193010000000000000000            000000000000000000000000000000000000
000001939000397000Z*SALSICHAO COPACOL ORIONkg                       0000000000000193010000000000000000            000000000000000000000000000000000000
010001953000397000BATATA ESCOVADA kg                                0001950000000195010000000000000000            000000000000000000000000000000000000
000001953000397000BATATA ESCOVADA kg                                0001950000000195010000000000000000            000000000000000000000000000000000000
010001960000237000ABOBORA MORANGA kg                                0000000000000196010000000000000000            000000000000000000000000000000000000
000001960000237000ABOBORA MORANGA kg                                0000000000000196010000000000000000            000000000000000000000000000000000000
010001984001297000UVA BENITACA kg                                   0000000000000198010000000000000000            000000000000000000000000000000000000
000001984001297000UVA BENITACA kg                                   0000000000000198010000000000000000            000000000000000000000000000000000000
010001991001297000UVA NIAGARA kg                                    0000000000000199010000000000000000            000000000000000000000000000000000000
000001991001297000UVA NIAGARA kg                                    0000000000000199010000000000000000            000000000000000000000000000000000000
010002004000597000ABACATE kg                                        0000000000000200010000000000000000            000000000000000000000000000000000000
000002004000597000ABACATE kg                                        0000000000000200010000000000000000            000000000000000000000000000000000000
010002011000897000CAQUI FUIU                                        0002010000000201010000000000000000            000000000000000000000000000000000000
000002011000897000CAQUI FUIU                                        0002010000000201010000000000000000            000000000000000000000000000000000000
010002028000997000CAQUI CAFE                                        0002020000000202010000000000000000            000000000000000000000000000000000000
000002028000997000CAQUI CAFE                                        0002020000000202010000000000000000            000000000000000000000000000000000000
010002042001497011VAGEM kg                                          0002040000000204110000000000000000            000000000000000000000000000000000000
000002042001497011VAGEM kg                                          0002040000000204110000000000000000            000000000000000000000000000000000000
010002059001297000UVA RUBI kg                                       0000000000000205010000000000000000            000000000000000000000000000000000000
000002059001297000UVA RUBI kg                                       0000000000000205010000000000000000            000000000000000000000000000000000000
010002066001297000UVA ITALIA kg                                     0000000000000206010000000000000000            000000000000000000000000000000000000
000002066001297000UVA ITALIA kg                                     0000000000000206010000000000000000            000000000000000000000000000000000000
010002073001097000TAIA kg                                           0000000000000207010000000000000000            000000000000000000000000000000000000
000002073001097000TAIA kg                                           0000000000000207010000000000000000            000000000000000000000000000000000000
010002080000497000PONKAN kg                                         0000000000000208010000000000000000            000000000000000000000000000000000000
000002080000497000PONKAN kg                                         0000000000000208010000000000000000            000000000000000000000000000000000000
010002097000795000TANGERINA kg                                      0000000000000209010000000000000000            000000000000000000000000000000000000
000002097000795000TANGERINA kg                                      0000000000000209010000000000000000            000000000000000000000000000000000000
010002103000597000TOMATE kg                                         0000000000000210010000000000000000            000000000000000000000000000000000000
000002103000597000TOMATE kg                                         0000000000000210010000000000000000            000000000000000000000000000000000000
010002127002617000Z*COCO RALADO PADARIA kg                          0000000000000212010000000000000000            000000000000000000000000000000000000
000002127002617000Z*COCO RALADO PADARIA kg                          0000000000000212010000000000000000            000000000000000000000000000000000000
010002134000795000PIMENTAO VERDE kg                                 0000000000000213010000000000000000            000000000000000000000000000000000000
000002134000795000PIMENTAO VERDE kg                                 0000000000000213010000000000000000            000000000000000000000000000000000000
010002158001997000PESSEGO NACIONAL kg                               0000000000000215010000000000000000            000000000000000000000000000000000000
000002158001997000PESSEGO NACIONAL kg                               0000000000000215010000000000000000            000000000000000000000000000000000000
010002165001097000PINHAO kg                                         0000000000000216010000000000000000            000000000000000000000000000000000000
000002165001097000PINHAO kg                                         0000000000000216010000000000000000            000000000000000000000000000000000000
010002172000397000PEPINO SALADA kg                                  0000000000000217010000000000000000            000000000000000000000000000000000000
000002172000397000PEPINO SALADA kg                                  0000000000000217010000000000000000            000000000000000000000000000000000000
010002189000397000NABO kg                                           0000000000000218010000000000000000            000000000000000000000000000000000000
000002189000397000NABO kg                                           0000000000000218010000000000000000            000000000000000000000000000000000000
010002196001997000NECTARINA NACIONAL kg                             0000000000000219010000000000000000            000000000000000000000000000000000000
000002196001997000NECTARINA NACIONAL kg                             0000000000000219010000000000000000            000000000000000000000000000000000000
010002219000795000MANGA TOMMY kg                                    0000000000000221010000000000000000            000000000000000000000000000000000000
000002219000795000MANGA TOMMY kg                                    0000000000000221010000000000000000            000000000000000000000000000000000000
010002226000297000MELANCIA INTEIRA kg                               0000000000000222010000000000000000            000000000000000000000000000000000000
000002226000297000MELANCIA INTEIRA kg                               0000000000000222010000000000000000            000000000000000000000000000000000000
010002240000695000MACA GALA kg                                      0000000000000224010000000000000000            000000000000000000000000000000000000
000002240000695000MACA GALA kg                                      0000000000000224010000000000000000            000000000000000000000000000000000000
010002257000897000MACA PINK kg                                      0000000000000225010000000000000000            000000000000000000000000000000000000
000002257000897000MACA PINK kg                                      0000000000000225010000000000000000            000000000000000000000000000000000000
010002264001257000MACA ARGENTINA kg                                 0000000000000226010000000000000000            000000000000000000000000000000000000
000002264001257000MACA ARGENTINA kg                                 0000000000000226010000000000000000            000000000000000000000000000000000000
010002288000897000MACA FUJI kg                                      0000000000000228010000000000000000            000000000000000000000000000000000000
000002288000897000MACA FUJI kg                                      0000000000000228010000000000000000            000000000000000000000000000000000000
010002295001297000MAMAO FORMOSA kg                                  0000000000000229010000000000000000            000000000000000000000000000000000000
000002295001297000MAMAO FORMOSA kg                                  0000000000000229010000000000000000            000000000000000000000000000000000000
010002301000997000MARACUJA kg                                       0000000000000230010000000000000000            000000000000000000000000000000000000
000002301000997000MARACUJA kg                                       0000000000000230010000000000000000            000000000000000000000000000000000000
010002318000297000LIMAO COMUM kg                                    0000000000000231010000000000000000            000000000000000000000000000000000000
000002318000297000LIMAO COMUM kg                                    0000000000000231010000000000000000            000000000000000000000000000000000000
010002325000497000LIMAO CAIPIRA kg                                  0000000000000232010000000000000000            000000000000000000000000000000000000
000002325000497000LIMAO CAIPIRA kg                                  0000000000000232010000000000000000            000000000000000000000000000000000000
010002332000437000LARANJA LIMA kg                                   0000000000000233010000000000000000            000000000000000000000000000000000000
000002332000437000LARANJA LIMA kg                                   0000000000000233010000000000000000            000000000000000000000000000000000000
010002349000297000RESIDUO OSSO DESMACHE kg                          0000000000000234010000000000000000            000000000000000000000000000000000000
000002349000297000RESIDUO OSSO DESMACHE kg                          0000000000000234010000000000000000            000000000000000000000000000000000000
010002356000497000LARANJA BAHIA NACIONAL kg                         0000000000000235010000000000000000            000000000000000000000000000000000000
000002356000497000LARANJA BAHIA NACIONAL kg                         0000000000000235010000000000000000            000000000000000000000000000000000000
010002363000397000LARANJA MORGOTE kg                                0000000000000236010000000000000000            000000000000000000000000000000000000
000002363000397000LARANJA MORGOTE kg                                0000000000000236010000000000000000            000000000000000000000000000000000000
010002370000347000LARANJA PERA kg                                   0000000000000237010000000000000000            000000000000000000000000000000000000
000002370000347000LARANJA PERA kg                                   0000000000000237010000000000000000            000000000000000000000000000000000000
010002387000997000FEIJAO VERMELHO kg                                0000000000000238010000000000000000            000000000000000000000000000000000000
000002387000997000FEIJAO VERMELHO kg                                0000000000000238010000000000000000            000000000000000000000000000000000000
010002394000493000FEIJAO PRETO kg                                   0000000000000239010000000000000000            000000000000000000000000000000000000
000002394000493000FEIJAO PRETO kg                                   0000000000000239010000000000000000            000000000000000000000000000000000000
010002400000497000COCO SECO INTEIRO kg                              0000000000000240010000000000000000            000000000000000000000000000000000000
000002400000497000COCO SECO INTEIRO kg                              0000000000000240010000000000000000            000000000000000000000000000000000000
010002417002297003CAROL SANDUICHE NATURAL kg                        0002410000000241110000000000000000            000000000000000000000000000000000000
000002417002297003CAROL SANDUICHE NATURAL kg                        0002410000000241110000000000000000            000000000000000000000000000000000000
010002424000397000CEBOLA kg                                         0002420000000242010000000000000000            000000000000000000000000000000000000
000002424000397000CEBOLA kg                                         0002420000000242010000000000000000            000000000000000000000000000000000000
010002431000597000CENOURA kg                                        0002430000000243010000000000000000            000000000000000000000000000000000000
000002431000597000CENOURA kg                                        0002430000000243010000000000000000            000000000000000000000000000000000000
010002448000297000CHUCHU kg                                         0000000000000244010000000000000000            000000000000000000000000000000000000
000002448000297000CHUCHU kg                                         0000000000000244010000000000000000            000000000000000000000000000000000000
010002455001297000CARA kg                                           0002450000000245010000000000000000            000000000000000000000000000000000000
000002455001297000CARA kg                                           0002450000000245010000000000000000            000000000000000000000000000000000000
010002462000377000BANANA CATURRA kg                                 0002460000000246010000000000000000            000000000000000000000000000000000000
000002462000377000BANANA CATURRA kg                                 0002460000000246010000000000000000            000000000000000000000000000000000000
010002479000537000BANANA BRANCA kg                                  0002470000000247010000000000000000            000000000000000000000000000000000000
000002479000537000BANANA BRANCA kg                                  0002470000000247010000000000000000            000000000000000000000000000000000000
010002486000897000BERINJELA kg                                      0002480000000248010000000000000000            000000000000000000000000000000000000
000002486000897000BERINJELA kg                                      0002480000000248010000000000000000            000000000000000000000000000000000000
010002493000397000BETERRABA kg                                      0002490000000249010000000000000000            000000000000000000000000000000000000
000002493000397000BETERRABA kg                                      0002490000000249010000000000000000            000000000000000000000000000000000000
010002509000397000BATATA DOCE  kg                                   0002500000000250010000000000000000            000000000000000000000000000000000000
000002509000397000BATATA DOCE  kg                                   0002500000000250010000000000000000            000000000000000000000000000000000000
010002516000397000BATATA LAVADA kg                                  0002510000000251010000000000000000            000000000000000000000000000000000000
000002516000397000BATATA LAVADA kg                                  0002510000000251010000000000000000            000000000000000000000000000000000000
010002523000397000ABOBRINHA kg                                      0000000000000252010000000000000000            000000000000000000000000000000000000
000002523000397000ABOBRINHA kg                                      0000000000000252010000000000000000            000000000000000000000000000000000000
010002530000257000ABOBORA SECA kg                                   0000000000000253010000000000000000            000000000000000000000000000000000000
000002530000257000ABOBORA SECA kg                                   0000000000000253010000000000000000            000000000000000000000000000000000000
010002554003397004CAROL NEGA MALUCA QUADRADA kg                     0002550000000255110000000000000000            000000000000000000000000000000000000
000002554003397004CAROL NEGA MALUCA QUADRADA kg                     0002550000000255110000000000000000            000000000000000000000000000000000000
010002646002593002Z*CAROL TORTA CHOCOLATE  kg                       0002640000000264110000000000000000            000000000000000000000000000000000000
000002646002593002Z*CAROL TORTA CHOCOLATE  kg                       0002640000000264110000000000000000            000000000000000000000000000000000000
010002677004785004CAROL BOLO CENOURA CASEIRO kg                     0002670000000267110000000000000000            000000000000000000000000000000000000
000002677004785004CAROL BOLO CENOURA CASEIRO kg                     0002670000000267110000000000000000            000000000000000000000000000000000000
010002684001997002CAROL MASSINHA ABACAXI kg                         0002680000000268110000000000000000            000000000000000000000000000000000000
000002684001997002CAROL MASSINHA ABACAXI kg                         0002680000000268110000000000000000            000000000000000000000000000000000000
010002691001397007Z*SALSICHA COPACOL FRANGOS/CORANTE kg.            0002690000000269110000000000000000            000000000000000000000000000000000000
000002691001397007Z*SALSICHA COPACOL FRANGOS/CORANTE kg.            0002690000000269110000000000000000            000000000000000000000000000000000000
010002738001997000Z*QUEIJO LANCHE SANTA ROSA PRATO kg               0002730000000273010000000000000000            000000000000000000000000000000000000
000002738001997000Z*QUEIJO LANCHE SANTA ROSA PRATO kg               0002730000000273010000000000000000            000000000000000000000000000000000000
010002745002785004CAROL BOLO LIMAO QUADRADOkg                       0002740000000274110000000000000000            000000000000000000000000000000000000
000002745002785004CAROL BOLO LIMAO QUADRADOkg                       0002740000000274110000000000000000            000000000000000000000000000000000000
010002776003493004CAROL BOLO AIPIM kg                               0002770000000277110000000000000000            000000000000000000000000000000000000
000002776003493004CAROL BOLO AIPIM kg                               0002770000000277110000000000000000            000000000000000000000000000000000000
010002820002917180UVA PASSAS A GRANEL BRANCA                        0002820000000282110000000000000000            000000000000000000000000000000000000
000002820002917180UVA PASSAS A GRANEL BRANCA                        0002820000000282110000000000000000            000000000000000000000000000000000000
010002837004997180AMEIXA PRETA C/CAROCO GRANEL kg                   0002830000000283110000000000000000            000000000000000000000000000000000000
000002837004997180AMEIXA PRETA C/CAROCO GRANEL kg                   0002830000000283110000000000000000            000000000000000000000000000000000000
010002844008755180CASTANHA PARA INTEIRA GRANEL kg                   0002840000000284110000000000000000            000000000000000000000000000000000000
000002844008755180CASTANHA PARA INTEIRA GRANEL kg                   0002840000000284110000000000000000            000000000000000000000000000000000000
010002851007955000CEREJA MARASCHINO GRANEL S/CABO kg                0000000000000285010000000000000000            000000000000000000000000000000000000
000002851007955000CEREJA MARASCHINO GRANEL S/CABO kg                0000000000000285010000000000000000            000000000000000000000000000000000000
010002868002997006Z*PRESUNTO SADIA COZIDO S/CAPA kg                 0002860000000286110000000000000000            000000000000000000000000000000000000
000002868002997006Z*PRESUNTO SADIA COZIDO S/CAPA kg                 0002860000000286110000000000000000            000000000000000000000000000000000000
010002875002997030CAROL ORELHA GATO FINA kg                         0002870000000287110000000000000000            000000000000000000000000000000000000
000002875002997030CAROL ORELHA GATO FINA kg                         0002870000000287110000000000000000            000000000000000000000000000000000000
010002899004545000ZIN PAO MINI CHURROS CHOCOL.COCO kg               0000000000000289010000000000000000            000000000000000000000000000000000000
000002899004545000ZIN PAO MINI CHURROS CHOCOL.COCO kg               0000000000000289010000000000000000            000000000000000000000000000000000000
010002912001997006RETALHO PRESUNTO kg.                              0002910000000291110000000000000000            000000000000000000000000000000000000
000002912001997006RETALHO PRESUNTO kg.                              0002910000000291110000000000000000            000000000000000000000000000000000000
010002929000795006RETALHO MORTADELA kg.                             0002920000000292110000000000000000            000000000000000000000000000000000000
000002929000795006RETALHO MORTADELA kg.                             0002920000000292110000000000000000            000000000000000000000000000000000000
010002936003517000Z*QUEIJO LANCHE TIROL MUSSARELA                   0000000000000293010000000000000000            000000000000000000000000000000000000
000002936003517000Z*QUEIJO LANCHE TIROL MUSSARELA                   0000000000000293010000000000000000            000000000000000000000000000000000000
010003001001785002CAROL MASSINHA CREME/COCOkg                       0003000000000300110000000000000000            000000000000000000000000000000000000
000003001001785002CAROL MASSINHA CREME/COCOkg                       0003000000000300110000000000000000            000000000000000000000000000000000000
010003018001837180FRUTAS CRISTALIZADAS GRANEL kg                    0003010000000301110000000000000000            000000000000000000000000000000000000
000003018001837180FRUTAS CRISTALIZADAS GRANEL kg                    0003010000000301110000000000000000            000000000000000000000000000000000000
010003032000397011RABANETE kg                                       0003030000000303110000000000000000            000000000000000000000000000000000000
000003032000397011RABANETE kg                                       0003030000000303110000000000000000            000000000000000000000000000000000000
010003049004537000CUPIM BOVINO kg                                   0000000000000304010000000000000000            000000000000000000000000000000000000
000003049004537000CUPIM BOVINO kg                                   0000000000000304010000000000000000            000000000000000000000000000000000000
011003056003387000TERRA MINAS CHURROS DOCE LEITE 2kg                0000000000000305010000000000000000            000000000000000000000000000000000000
001003056003387000TERRA MINAS CHURROS DOCE LEITE 2kg                0000000000000305010000000000000000            000000000000000000000000000000000000
010003070001593002CAROL MASSINHA FAROFA kg                          0003070000000307110000000000000000            000000000000000000000000000000000000
000003070001593002CAROL MASSINHA FAROFA kg                          0003070000000307110000000000000000            000000000000000000000000000000000000
010003087002897000Z*LOMBO SUINO TEMPERADA PAMPLONA kg               0003080000000308010000000000000000            000000000000000000000000000000000000
000003087002897000Z*LOMBO SUINO TEMPERADA PAMPLONA kg               0003080000000308010000000000000000            000000000000000000000000000000000000
010003094001493004CORACAO SUINO kg                                  0003090000000309110000000000000000            000000000000000000000000000000000000
000003094001493004CORACAO SUINO kg                                  0003090000000309110000000000000000            000000000000000000000000000000000000
010003100001493000LINGUA SUINA kg                                   0003100000000310010000000000000000            000000000000000000000000000000000000
000003100001493000LINGUA SUINA kg                                   0003100000000310010000000000000000            000000000000000000000000000000000000
011003131000563000CAROL COXINHA FRANGO Un                           0000000000000313010000000000000000            000000000000000000000000000000000000
001003131000563000CAROL COXINHA FRANGO Un                           0000000000000313010000000000000000            000000000000000000000000000000000000
010003148007657000PERNIL CORDEIRO kg                                0000000000000314010000000000000000            000000000000000000000000000000000000
000003148007657000PERNIL CORDEIRO kg                                0000000000000314010000000000000000            000000000000000000000000000000000000
010003155002987003LOMBO BOVINO S/OSSO kg                            0003150000000315110000000000000000            000000000000000000000000000000000000
000003155002987003LOMBO BOVINO S/OSSO kg                            0003150000000315110000000000000000            000000000000000000000000000000000000
010003162003387003PEITO BOVINO S/OSSO kg                            0003160000000316110000000000000000            000000000000000000000000000000000000
000003162003387003PEITO BOVINO S/OSSO kg                            0003160000000316110000000000000000            000000000000000000000000000000000000
010003179000497000PEPINO JAPONES kg                                 0000000000000317010000000000000000            000000000000000000000000000000000000
000003179000497000PEPINO JAPONES kg                                 0000000000000317010000000000000000            000000000000000000000000000000000000
010003223005147000Z*QUEIJO LANCHE PRATO PREDILETO kg                0003220000000322010000000000000000            000000000000000000000000000000000000
000003223005147000Z*QUEIJO LANCHE PRATO PREDILETO kg                0003220000000322010000000000000000            000000000000000000000000000000000000
010003254000695002ASSA PODRE kg                                     0003250000000325110000000000000000            000000000000000000000000000000000000
000003254000695002ASSA PODRE kg                                     0003250000000325110000000000000000            000000000000000000000000000000000000
010003261002867002CAROL SALGADO DELICIA FRANGO kg                   0003260000000326110000000000000000            000000000000000000000000000000000000
000003261002867002CAROL SALGADO DELICIA FRANGO kg                   0003260000000326110000000000000000            000000000000000000000000000000000000
010003315000397000AIPIM kg                                          0000000000000331010000000000000000            000000000000000000000000000000000000
000003315000397000AIPIM kg                                          0000000000000331010000000000000000            000000000000000000000000000000000000
010003346000300005CAROL SALDO PAO kg                                0003340000000334110000000000000000            000000000000000000000000000000000000
000003346000300005CAROL SALDO PAO kg                                0003340000000334110000000000000000            000000000000000000000000000000000000
010003384001695002Z*CAROL CUCA REDONDA FAROFA kg                    0003380000000338110000000000000000            000000000000000000000000000000000000
000003384001695002Z*CAROL CUCA REDONDA FAROFA kg                    0003380000000338110000000000000000            000000000000000000000000000000000000
010003421004237000BACON PAMPLONA VACUO kg                           0003420000000342010000000000000000            000000000000000000000000000000000000
000003421004237000BACON PAMPLONA VACUO kg                           0003420000000342010000000000000000            000000000000000000000000000000000000
011003476000117000CAROL MINI RISOLES CARNE Un                       0000000000000347010000000000000000            000000000000000000000000000000000000
001003476000117000CAROL MINI RISOLES CARNE Un                       0000000000000347010000000000000000            000000000000000000000000000000000000
010003520001493000Z*MORTADELA PAMPLONA BOLONHA kg                   0003520000000352010000000000000000            000000000000000000000000000000000000
000003520001493000Z*MORTADELA PAMPLONA BOLONHA kg                   0003520000000352010000000000000000            000000000000000000000000000000000000
010003544002493002CAROL CUCA CREMOSA kg                             0003540000000354110000000000000000            000000000000000000000000000000000000
000003544002493002CAROL CUCA CREMOSA kg                             0003540000000354110000000000000000            000000000000000000000000000000000000
010003551002997002CAROL FOLHADO FRANGO kg                           0003550000000355110000000000000000            000000000000000000000000000000000000
000003551002997002CAROL FOLHADO FRANGO kg                           0003550000000355110000000000000000            000000000000000000000000000000000000
010003575001785002CAROL MASSINHA BANANA kg                          0003570000000357110000000000000000            000000000000000000000000000000000000
000003575001785002CAROL MASSINHA BANANA kg                          0003570000000357110000000000000000            000000000000000000000000000000000000
010003582002493003CAROL BENGALA RECHEADO kg                         0003580000000358110000000000000000            000000000000000000000000000000000000
000003582002493003CAROL BENGALA RECHEADO kg                         0003580000000358110000000000000000            000000000000000000000000000000000000
010003599011725180DAMASCO A GRANEL                                  0003590000000359110000000000000000            000000000000000000000000000000000000
000003599011725180DAMASCO A GRANEL                                  0003590000000359110000000000000000            000000000000000000000000000000000000
010003629001297002Z*CAROL MASSINHA ACUCAR LEITE COND.kg             0003620000000362110000000000000000            000000000000000000000000000000000000
000003629001297002Z*CAROL MASSINHA ACUCAR LEITE COND.kg             0003620000000362110000000000000000            000000000000000000000000000000000000
010003667006957000SALAMINHO PAMPLONA kg                             0000000000000366010000000000000000            000000000000000000000000000000000000
000003667006957000SALAMINHO PAMPLONA kg                             0000000000000366010000000000000000            000000000000000000000000000000000000
010003698001493000Z*QUEIJO RICOTA LASAROLI S/SAL kg                 0003690000000369010000000000000000            000000000000000000000000000000000000
000003698001493000Z*QUEIJO RICOTA LASAROLI S/SAL kg                 0003690000000369010000000000000000            000000000000000000000000000000000000
010003742001697000AMEIXA NACIONAL FLAUMA kg                         0000000000000374010000000000000000            000000000000000000000000000000000000
000003742001697000AMEIXA NACIONAL FLAUMA kg                         0000000000000374010000000000000000            000000000000000000000000000000000000
010003759000297000CEBOLA MIUDA kg                                   0003750000000375010000000000000000            000000000000000000000000000000000000
000003759000297000CEBOLA MIUDA kg                                   0003750000000375010000000000000000            000000000000000000000000000000000000
010003766001497000Z*PESSEGO AMARELO NACIONAL kg                     0000000000000376010000000000000000            000000000000000000000000000000000000
000003766001497000Z*PESSEGO AMARELO NACIONAL kg                     0000000000000376010000000000000000            000000000000000000000000000000000000
010003780002493002CAROL CUCA QUADRADA FAROFA C/NATA kg              0003780000000378110000000000000000            000000000000000000000000000000000000
000003780002493002CAROL CUCA QUADRADA FAROFA C/NATA kg              0003780000000378110000000000000000            000000000000000000000000000000000000
010003797001297000UVA BRASIL kg                                     0000000000000379010000000000000000            000000000000000000000000000000000000
000003797001297000UVA BRASIL kg                                     0000000000000379010000000000000000            000000000000000000000000000000000000
010003803004493007CAROL BRIOCHE AVELA kg                            0003800000000380110000000000000000            000000000000000000000000000000000000
000003803004493007CAROL BRIOCHE AVELA kg                            0003800000000380110000000000000000            000000000000000000000000000000000000
010003827004387003CARNE P/ESTROGONOFE BOV. kg                       0003820000000382110000000000000000            000000000000000000000000000000000000
000003827004387003CARNE P/ESTROGONOFE BOV. kg                       0003820000000382110000000000000000            000000000000000000000000000000000000
010003841000695000Z*MUSCULO BOVINO ROLETE kg                        0000000000000384010000000000000000            000000000000000000000000000000000000
000003841000695000Z*MUSCULO BOVINO ROLETE kg                        0000000000000384010000000000000000            000000000000000000000000000000000000
010003865001493045CAROL TORRADA INTEGRAL kg                         0003860000000386110000000000000000            000000000000000000000000000000000000
000003865001493045CAROL TORRADA INTEGRAL kg                         0003860000000386110000000000000000            000000000000000000000000000000000000
010003872002493002CAROL CUCA QUADRADA NATA kg                       0003870000000387110000000000000000            000000000000000000000000000000000000
000003872002493002CAROL CUCA QUADRADA NATA kg                       0003870000000387110000000000000000            000000000000000000000000000000000000
010003902003997002CAROL CUCA QUADRADA SONHOVALSA kg                 0003900000000390110000000000000000            000000000000000000000000000000000000
000003902003997002CAROL CUCA QUADRADA SONHOVALSA kg                 0003900000000390110000000000000000            000000000000000000000000000000000000
010003919003997002CAROL CROISSANT CHOCOLATEMINI kg                  0003910000000391110000000000000000            000000000000000000000000000000000000
000003919003997002CAROL CROISSANT CHOCOLATEMINI kg                  0003910000000391110000000000000000            000000000000000000000000000000000000
010003926002867002CAROL SALGADO LASANHA FRANGO kg                   0003920000000392110000000000000000            000000000000000000000000000000000000
000003926002867002CAROL SALGADO LASANHA FRANGO kg                   0003920000000392110000000000000000            000000000000000000000000000000000000
010003933002997002Z*CAROL SALGADO PASTELAO CARNE kg                 0003930000000393110000000000000000            000000000000000000000000000000000000
000003933002997002Z*CAROL SALGADO PASTELAO CARNE kg                 0003930000000393110000000000000000            000000000000000000000000000000000000
010003957002867002CAROL SALGADO PAO QUENTE kg                       0003950000000395110000000000000000            000000000000000000000000000000000000
000003957002867002CAROL SALGADO PAO QUENTE kg                       0003950000000395110000000000000000            000000000000000000000000000000000000
010003964002867003CAROL SALGADO PAO PICANTEkg                       0003960000000396110000000000000000            000000000000000000000000000000000000
000003964002867003CAROL SALGADO PAO PICANTEkg                       0003960000000396110000000000000000            000000000000000000000000000000000000
010003971002593000CAROL PAO BATATA CALABRESA kg                     0000000000000397010000000000000000            000000000000000000000000000000000000
000003971002593000CAROL PAO BATATA CALABRESA kg                     0000000000000397010000000000000000            000000000000000000000000000000000000
010003995001197000QUEIJO RICOTA DOERNER kg                          0000000000000399010000000000000000            000000000000000000000000000000000000
000003995001197000QUEIJO RICOTA DOERNER kg                          0000000000000399010000000000000000            000000000000000000000000000000000000
010004039001997002CAROL ORELHA GATO FOFINHAkg                       0004030000000403110000000000000000            000000000000000000000000000000000000
000004039001997002CAROL ORELHA GATO FOFINHAkg                       0004030000000403110000000000000000            000000000000000000000000000000000000
010004053001997002Z*CAROL CUCA QUADRADA AMEIXA kg                   0004050000000405110000000000000000            000000000000000000000000000000000000
000004053001997002Z*CAROL CUCA QUADRADA AMEIXA kg                   0004050000000405110000000000000000            000000000000000000000000000000000000
010004060002397000KIWI IMPORTADO kg                                 0000000000000406010000000000000000            000000000000000000000000000000000000
000004060002397000KIWI IMPORTADO kg                                 0000000000000406010000000000000000            000000000000000000000000000000000000
010004077002493002CAROL CUCA QUADRADA ABACAXI kg                    0004070000000407110000000000000000            000000000000000000000000000000000000
000004077002493002CAROL CUCA QUADRADA ABACAXI kg                    0004070000000407110000000000000000            000000000000000000000000000000000000
011004084000593000CAROL PASTEL DA CASA  Un                          0000000000000408010000000000000000            000000000000000000000000000000000000
001004084000593000CAROL PASTEL DA CASA  Un                          0000000000000408010000000000000000            000000000000000000000000000000000000
010004091002493002CAROL CUCA QUADRADA BANANA kg                     0004090000000409110000000000000000            000000000000000000000000000000000000
000004091002493002CAROL CUCA QUADRADA BANANA kg                     0004090000000409110000000000000000            000000000000000000000000000000000000
010004107003397003PALETA BOVINA TEMPERADA kg                        0004100000000410110000000000000000            000000000000000000000000000000000000
000004107003397003PALETA BOVINA TEMPERADA kg                        0004100000000410110000000000000000            000000000000000000000000000000000000
010004121002583005CAROL BOLO INGLES NEUTRO kg                       0004120000000412110000000000000000            000000000000000000000000000000000000
000004121002583005CAROL BOLO INGLES NEUTRO kg                       0004120000000412110000000000000000            000000000000000000000000000000000000
010004138002493002CAROL MINI PIZZA FRANGO kg                        0004130000000413110000000000000000            000000000000000000000000000000000000
000004138002493002CAROL MINI PIZZA FRANGO kg                        0004130000000413110000000000000000            000000000000000000000000000000000000
010004152002997003MUSCULO BOVINO S/OSSO kg                          0004150000000415110000000000000000            000000000000000000000000000000000000
000004152002997003MUSCULO BOVINO S/OSSO kg                          0004150000000415110000000000000000            000000000000000000000000000000000000
010004169000697000CARAMBOLA kg                                      0004160000000416010000000000000000            000000000000000000000000000000000000
000004169000697000CARAMBOLA kg                                      0004160000000416010000000000000000            000000000000000000000000000000000000
010004176000957000PERA D ANJOU kg                                   0000000000000417010000000000000000            000000000000000000000000000000000000
000004176000957000PERA D ANJOU kg                                   0000000000000417010000000000000000            000000000000000000000000000000000000
010004183003997007MATAMBRE RECHEADO BOV. CAROL kg                   0004180000000418110000000000000000            000000000000000000000000000000000000
000004183003997007MATAMBRE RECHEADO BOV. CAROL kg                   0004180000000418110000000000000000            000000000000000000000000000000000000
010004190000795002SSA PAO HUNGARO kg                                0004190000000419110000000000000000            000000000000000000000000000000000000
000004190000795002SSA PAO HUNGARO kg                                0004190000000419110000000000000000            000000000000000000000000000000000000
010004213000397000TOMATE MOLHO kg                                   0000000000000421010000000000000000            000000000000000000000000000000000000
000004213000397000TOMATE MOLHO kg                                   0000000000000421010000000000000000            000000000000000000000000000000000000
010004251001097011Z*MORTADELA AURORA DEFUMADA kg                    0004250000000425110000000000000000            000000000000000000000000000000000000
000004251001097011Z*MORTADELA AURORA DEFUMADA kg                    0004250000000425110000000000000000            000000000000000000000000000000000000
010004305003997003CAROL CAROLINA AVELA kg                           0004300000000430110000000000000000            000000000000000000000000000000000000
000004305003997003CAROL CAROLINA AVELA kg                           0004300000000430110000000000000000            000000000000000000000000000000000000
011004329000593002EMPADA PALMITO PADARIA UnLEBA                     0004320000000432110000000000000000            000000000000000000000000000000000000
001004329000593002EMPADA PALMITO PADARIA UnLEBA                     0004320000000432110000000000000000            000000000000000000000000000000000000
010004367002997000CAROL PASTELZINHO CARNE kg                        0004360000000436010000000000000000            000000000000000000000000000000000000
000004367002997000CAROL PASTELZINHO CARNE kg                        0004360000000436010000000000000000            000000000000000000000000000000000000
010004398002397000DIANTEIRO BOVINO                                  0000000000000439010000000000000000            000000000000000000000000000000000000
000004398002397000DIANTEIRO BOVINO                                  0000000000000439010000000000000000            000000000000000000000000000000000000
010004404002493003CAROL CUCA REDONDA FAROFAC/NATA kg                0004400000000440110000000000000000            000000000000000000000000000000000000
000004404002493003CAROL CUCA REDONDA FAROFAC/NATA kg                0004400000000440110000000000000000            000000000000000000000000000000000000
010004411002997003CAROL CUCA REDONDA QUEIJINHO kg                   0004410000000441110000000000000000            000000000000000000000000000000000000
000004411002997003CAROL CUCA REDONDA QUEIJINHO kg                   0004410000000441110000000000000000            000000000000000000000000000000000000
010004466001493045CAROL TORRADA PAO SANDUICHE kg                    0004460000000446110000000000000000            000000000000000000000000000000000000
000004466001493045CAROL TORRADA PAO SANDUICHE kg                    0004460000000446110000000000000000            000000000000000000000000000000000000
010004480000493000MELAO AMARELO kg                                  0000000000000448010000000000000000            000000000000000000000000000000000000
000004480000493000MELAO AMARELO kg                                  0000000000000448010000000000000000            000000000000000000000000000000000000
010004503001987002CAROL PAO FRANCES MINI kg                         0004500000000450110000000000000000            000000000000000000000000000000000000
000004503001987002CAROL PAO FRANCES MINI kg                         0004500000000450110000000000000000            000000000000000000000000000000000000
010004541001493021CAROL TORRADA C/MANTEIGA kg                       0004540000000454110000000000000000            000000000000000000000000000000000000
000004541001493021CAROL TORRADA C/MANTEIGA kg                       0004540000000454110000000000000000            000000000000000000000000000000000000
010004633003927006CORACAO FGO TEMPERADO CAROL kg                    0004630000000463110000000000000000            000000000000000000000000000000000000
000004633003927006CORACAO FGO TEMPERADO CAROL kg                    0004630000000463110000000000000000            000000000000000000000000000000000000
010004763002587000Z*PERNIL SUINO PAMPLONA C/OSSO TEMP.              0000000000000476010000000000000000            000000000000000000000000000000000000
000004763002587000Z*PERNIL SUINO PAMPLONA C/OSSO TEMP.              0000000000000476010000000000000000            000000000000000000000000000000000000
010004817003987000GRANITO BOVINO PAMPLONA S/OSSO TEMP.kg            0000000000000481010000000000000000            000000000000000000000000000000000000
000004817003987000GRANITO BOVINO PAMPLONA S/OSSO TEMP.kg            0000000000000481010000000000000000            000000000000000000000000000000000000
010004831007657000PALETA CORDEIRO kg                                0000000000000483010000000000000000            000000000000000000000000000000000000
000004831007657000PALETA CORDEIRO kg                                0000000000000483010000000000000000            000000000000000000000000000000000000
010004886003785000LOMBO SUINO S/OSSO PAMPLONA TEMP.kg               0000000000000488010000000000000000            000000000000000000000000000000000000
000004886003785000LOMBO SUINO S/OSSO PAMPLONA TEMP.kg               0000000000000488010000000000000000            000000000000000000000000000000000000
010004909000327000BATATA MIUDA kg                                   0004900000000490010000000000000000            000000000000000000000000000000000000
000004909000327000BATATA MIUDA kg                                   0004900000000490010000000000000000            000000000000000000000000000000000000
010004916004785003MIOLO ALCATRA BOV  kg                             0004910000000491110000000000000000            000000000000000000000000000000000000
000004916004785003MIOLO ALCATRA BOV  kg                             0004910000000491110000000000000000            000000000000000000000000000000000000
010004947001997002CAROL FOLHADO COCO kg                             0004940000000494110000000000000000            000000000000000000000000000000000000
000004947001997002CAROL FOLHADO COCO kg                             0004940000000494110000000000000000            000000000000000000000000000000000000
010004954000997000COXA + SOBRE.FRANGO LAR S/DORSO kg                0000000000000495010000000000000000            000000000000000000000000000000000000
000004954000997000COXA + SOBRE.FRANGO LAR S/DORSO kg                0000000000000495010000000000000000            000000000000000000000000000000000000
011004978000200000LANCHONETE PAO QUEIJO GDEUn                       0000000000000497010000000000000000            000000000000000000000000000000000000
001004978000200000LANCHONETE PAO QUEIJO GDEUn                       0000000000000497010000000000000000            000000000000000000000000000000000000
010005029002917000Z*TORRESMO PURURUCA PERONkg                       0000000000000502010000000000000000            000000000000000000000000000000000000
000005029002917000Z*TORRESMO PURURUCA PERONkg                       0000000000000502010000000000000000            000000000000000000000000000000000000
010005050001087004Z*CAROL PAO SOVADO kg                             0005050000000505110000000000000000            000000000000000000000000000000000000
000005050001087004Z*CAROL PAO SOVADO kg                             0005050000000505110000000000000000            000000000000000000000000000000000000
010005067002493003CAROL FINESSE COCO kg                             0005060000000506110000000000000000            000000000000000000000000000000000000
000005067002493003CAROL FINESSE COCO kg                             0005060000000506110000000000000000            000000000000000000000000000000000000
010005074001997000MERETH kg                                         0000000000000507010000000000000000            000000000000000000000000000000000000
000005074001997000MERETH kg                                         0000000000000507010000000000000000            000000000000000000000000000000000000
010005104005537000QUEIJO MINAS HOLANDES LIGHT kg                    0005100000000510010000000000000000            000000000000000000000000000000000000
000005104005537000QUEIJO MINAS HOLANDES LIGHT kg                    0005100000000510010000000000000000            000000000000000000000000000000000000
010005111002997180UVA PASSAS A GRANEL PRETAkg                       0005110000000511110000000000000000            000000000000000000000000000000000000
000005111002997180UVA PASSAS A GRANEL PRETAkg                       0005110000000511110000000000000000            000000000000000000000000000000000000
011005142001997030CAROL COLOMBA PASCAL CHOCOLATE 400GR Un           0005140000000514110000000000000000            000000000000000000000000000000000000
001005142001997030CAROL COLOMBA PASCAL CHOCOLATE 400GR Un           0005140000000514110000000000000000            000000000000000000000000000000000000
010005159001593002CAROL PAO FRANCES INTEGRAL kg                     0005150000000515110000000000000000            000000000000000000000000000000000000
000005159001593002CAROL PAO FRANCES INTEGRAL kg                     0005150000000515110000000000000000            000000000000000000000000000000000000
010005180001197006MORTADELA CONFIANCA FRANGO kg                     0005180000000518110000000000000000            000000000000000000000000000000000000
000005180001197006MORTADELA CONFIANCA FRANGO kg                     0005180000000518110000000000000000            000000000000000000000000000000000000
010005289001695002Z*CAROL FINESSE ABACAXI kg                        0005280000000528110000000000000000            000000000000000000000000000000000000
000005289001695002Z*CAROL FINESSE ABACAXI kg                        0005280000000528110000000000000000            000000000000000000000000000000000000
010005401005937180AMEIXA PRETA S/CAROCO GRANEL kg                   0005400000000540110000000000000000            000000000000000000000000000000000000
000005401005937180AMEIXA PRETA S/CAROCO GRANEL kg                   0005400000000540110000000000000000            000000000000000000000000000000000000
010005418001695003Z*CAROL FINESSE BANANA kg                         0005410000000541110000000000000000            000000000000000000000000000000000000
000005418001695003Z*CAROL FINESSE BANANA kg                         0005410000000541110000000000000000            000000000000000000000000000000000000
010005449001697000AMEIXA NACIONAL kg                                0000000000000544010000000000000000            000000000000000000000000000000000000
000005449001697000AMEIXA NACIONAL kg                                0000000000000544010000000000000000            000000000000000000000000000000000000
010005470000897000CEBOLA ROXA kg                                    0005470000000547010000000000000000            000000000000000000000000000000000000
000005470000897000CEBOLA ROXA kg                                    0005470000000547010000000000000000            000000000000000000000000000000000000
010005494002583000Z*MAMINHA BOVINA                                  0000000000000549010000000000000000            000000000000000000000000000000000000
000005494002583000Z*MAMINHA BOVINA                                  0000000000000549010000000000000000            000000000000000000000000000000000000
010005623002493002CAROL PAO FRIOS kg                                0005620000000562110000000000000000            000000000000000000000000000000000000
000005623002493002CAROL PAO FRIOS kg                                0005620000000562110000000000000000            000000000000000000000000000000000000
010005760003725090CAROL DOCE NATAL PINTADO PADARIA kg               0005760000000576110000000000000000            000000000000000000000000000000000000
000005760003725090CAROL DOCE NATAL PINTADO PADARIA kg               0005760000000576110000000000000000            000000000000000000000000000000000000
010005777002297000UVA S/SEMENTE kg                                  0000000000000577010000000000000000            000000000000000000000000000000000000
000005777002297000UVA S/SEMENTE kg                                  0000000000000577010000000000000000            000000000000000000000000000000000000
010005784005937000ENTRECOT BOVINO  kg                               0000000000000578010000000000000000            000000000000000000000000000000000000
000005784005937000ENTRECOT BOVINO  kg                               0000000000000578010000000000000000            000000000000000000000000000000000000
010005807000397000MELANCIA FATIADA kg                               0000000000000580010000000000000000            000000000000000000000000000000000000
000005807000397000MELANCIA FATIADA kg                               0000000000000580010000000000000000            000000000000000000000000000000000000
010005821002297000PE SUINO SALGADO PAMPLONAkg                       0000000000000582010000000000000000            000000000000000000000000000000000000
000005821002297000PE SUINO SALGADO PAMPLONAkg                       0000000000000582010000000000000000            000000000000000000000000000000000000
010005920000997000COXA + SOBRE.FRANGO COPACOL kg                    0000000000000592010000000000000000            000000000000000000000000000000000000
000005920000997000COXA + SOBRE.FRANGO COPACOL kg                    0000000000000592010000000000000000            000000000000000000000000000000000000
010005937001593003CAROL PAO CERVEJINHA kg                           0005930000000593110000000000000000            000000000000000000000000000000000000
000005937001593003CAROL PAO CERVEJINHA kg                           0005930000000593110000000000000000            000000000000000000000000000000000000
010006026002997000RABO SUINO SALGADO PAMPLONA kg                    0006020000000602010000000000000000            000000000000000000000000000000000000
000006026002997000RABO SUINO SALGADO PAMPLONA kg                    0006020000000602010000000000000000            000000000000000000000000000000000000
010006040002597000ALHO kg                                           0000000000000604010000000000000000            000000000000000000000000000000000000
000006040002597000ALHO kg                                           0000000000000604010000000000000000            000000000000000000000000000000000000
010006095005547000QUEIJO LANCHE PRATO HOLANDES kg                   0000000000000609010000000000000000            000000000000000000000000000000000000
000006095005547000QUEIJO LANCHE PRATO HOLANDES kg                   0000000000000609010000000000000000            000000000000000000000000000000000000
010006156003997006CONTRA FILE BOVINO TEMPERADO kg                   0006150000000615110000000000000000            000000000000000000000000000000000000
000006156003997006CONTRA FILE BOVINO TEMPERADO kg                   0006150000000615110000000000000000            000000000000000000000000000000000000
010006279002795000PERU SADIA TEMPERADO kg                           0000000000000627010000000000000000            000000000000000000000000000000000000
000006279002795000PERU SADIA TEMPERADO kg                           0000000000000627010000000000000000            000000000000000000000000000000000000
010006293003985004CAROL ROCAMBOLE AMENDOIM kg                       0006290000000629110000000000000000            000000000000000000000000000000000000
000006293003985004CAROL ROCAMBOLE AMENDOIM kg                       0006290000000629110000000000000000            000000000000000000000000000000000000
010006309002493002CAROL SONHO CHOCOLATE kg                          0006300000000630110000000000000000            000000000000000000000000000000000000
000006309002493002CAROL SONHO CHOCOLATE kg                          0006300000000630110000000000000000            000000000000000000000000000000000000
010006316001997002CAROL SONHO GOIABADA kg                           0006310000000631110000000000000000            000000000000000000000000000000000000
000006316001997002CAROL SONHO GOIABADA kg                           0006310000000631110000000000000000            000000000000000000000000000000000000
010006323002493002CAROL SONHO DOCE LEITE kg                         0006320000000632110000000000000000            000000000000000000000000000000000000
000006323002493002CAROL SONHO DOCE LEITE kg                         0006320000000632110000000000000000            000000000000000000000000000000000000
010006330002493002CAROL SONHO CREME kg                              0006330000000633110000000000000000            000000000000000000000000000000000000
000006330002493002CAROL SONHO CREME kg                              0006330000000633110000000000000000            000000000000000000000000000000000000
010006347001997002CAROL MINI SONHO kg                               0006340000000634110000000000000000            000000000000000000000000000000000000
000006347001997002CAROL MINI SONHO kg                               0006340000000634110000000000000000            000000000000000000000000000000000000
010006408000257000ABOBORA CABOTIA kg                                0000000000000640010000000000000000            000000000000000000000000000000000000
000006408000257000ABOBORA CABOTIA kg                                0000000000000640010000000000000000            000000000000000000000000000000000000
010006484001695002CAROL CORUJA COMPRIDA kg                          0006480000000648110000000000000000            000000000000000000000000000000000000
000006484001695002CAROL CORUJA COMPRIDA kg                          0006480000000648110000000000000000            000000000000000000000000000000000000
010006507004987000TENDER FRIMESA S/OSSO kg                          0006500000000650010000000000000000            000000000000000000000000000000000000
000006507004987000TENDER FRIMESA S/OSSO kg                          0006500000000650010000000000000000            000000000000000000000000000000000000
010006521003997003FILE DUPLO BOVINO TEMPERADO kg                    0006520000000652110000000000000000            000000000000000000000000000000000000
000006521003997003FILE DUPLO BOVINO TEMPERADO kg                    0006520000000652110000000000000000            000000000000000000000000000000000000
010006606002297000ORELHA SUINA SALGADO PAMPLONA kg                  0000000000000660010000000000000000            000000000000000000000000000000000000
000006606002297000ORELHA SUINA SALGADO PAMPLONA kg                  0000000000000660010000000000000000            000000000000000000000000000000000000
010006651001795003CAROL GANACHE CHOCOLATE kg                        0006650000000665110000000000000000            000000000000000000000000000000000000
000006651001795003CAROL GANACHE CHOCOLATE kg                        0006650000000665110000000000000000            000000000000000000000000000000000000
010006668004997004CAROL ROCAMBOLE RED VELVET kg                     0006660000000666110000000000000000            000000000000000000000000000000000000
000006668004997004CAROL ROCAMBOLE RED VELVET kg                     0006660000000666110000000000000000            000000000000000000000000000000000000
010006699004937000Z*QUEIJO COLONIAL LASAROLI FRAC.kg                0006690000000669010000000000000000            000000000000000000000000000000000000
000006699004937000Z*QUEIJO COLONIAL LASAROLI FRAC.kg                0006690000000669010000000000000000            000000000000000000000000000000000000
010006712003997003ALCATRA C/OSSO BOVINO TEMPERADO kg                0006710000000671110000000000000000            000000000000000000000000000000000000
000006712003997003ALCATRA C/OSSO BOVINO TEMPERADO kg                0006710000000671110000000000000000            000000000000000000000000000000000000
010006743001493003GALETO CAROL  TEMPERADO kg                        0006740000000674110000000000000000            000000000000000000000000000000000000
000006743001493003GALETO CAROL  TEMPERADO kg                        0006740000000674110000000000000000            000000000000000000000000000000000000
010006750001493003COXA + SOBRE.FRANGO TEMPERADO kg                  0006750000000675110000000000000000            000000000000000000000000000000000000
000006750001493003COXA + SOBRE.FRANGO TEMPERADO kg                  0006750000000675110000000000000000            000000000000000000000000000000000000
010006859001887003Z*LINGUICA MISTA CAROL kg                         0006850000000685110000000000000000            000000000000000000000000000000000000
000006859001887003Z*LINGUICA MISTA CAROL kg                         0006850000000685110000000000000000            000000000000000000000000000000000000
010006873003997003Z*CAROL BOLO DIVINO kg                            0006870000000687110000000000000000            000000000000000000000000000000000000
000006873003997003Z*CAROL BOLO DIVINO kg                            0006870000000687110000000000000000            000000000000000000000000000000000000
010006965001490003CAROL PAO CHURRASCO kg                            0006960000000696110000000000000000            000000000000000000000000000000000000
000006965001490003CAROL PAO CHURRASCO kg                            0006960000000696110000000000000000            000000000000000000000000000000000000
010007047003573000Z*QUEIJO TRENTOLAT UBRIACO kg                     0007040000000704010000000000000000            000000000000000000000000000000000000
000007047003573000Z*QUEIJO TRENTOLAT UBRIACO kg                     0007040000000704010000000000000000            000000000000000000000000000000000000
010007092002487003LINGUA BOVINA kg                                  0007090000000709110000000000000000            000000000000000000000000000000000000
000007092002487003LINGUA BOVINA kg                                  0007090000000709110000000000000000            000000000000000000000000000000000000
010007108002493060COSTELA BOVINA C/OSSO FRIBOI CONG.kg              0007100000000710110000000000000000            000000000000000000000000000000000000
000007108002493060COSTELA BOVINA C/OSSO FRIBOI CONG.kg              0007100000000710110000000000000000            000000000000000000000000000000000000
010007122003887003FILE SIMPLES BOVINO TEMPERADO kg                  0007120000000712110000000000000000            000000000000000000000000000000000000
000007122003887003FILE SIMPLES BOVINO TEMPERADO kg                  0007120000000712110000000000000000            000000000000000000000000000000000000
010007139002197007Z*LINGUICA CALABRESA FRICASA kg                   0007130000000713110000000000000000            000000000000000000000000000000000000
000007139002197007Z*LINGUICA CALABRESA FRICASA kg                   0007130000000713110000000000000000            000000000000000000000000000000000000
010007146002593003MUSCULO BOVINO C/OSSO kg                          0007140000000714110000000000000000            000000000000000000000000000000000000
000007146002593003MUSCULO BOVINO C/OSSO kg                          0007140000000714110000000000000000            000000000000000000000000000000000000
010007351001493001CAROL BAGUETE FERMENTACAONATURAL                  0007350000000735110000000000000000            000000000000000000000000000000000000
000007351001493001CAROL BAGUETE FERMENTACAONATURAL                  0007350000000735110000000000000000            000000000000000000000000000000000000
010007382001695005Z*CAROL BOLO INGLES LIMAOkg                       0007380000000738110000000000000000            000000000000000000000000000000000000
000007382001695005Z*CAROL BOLO INGLES LIMAOkg                       0007380000000738110000000000000000            000000000000000000000000000000000000
010007436003795000LINGUICA BLUMENAU DESCHAMPS kg                    0000000000000743010000000000000000            000000000000000000000000000000000000
000007436003795000LINGUICA BLUMENAU DESCHAMPS kg                    0000000000000743010000000000000000            000000000000000000000000000000000000
010007450001493000CARNE SUINA C/PELE                                0000000000000745010000000000000000            000000000000000000000000000000000000
000007450001493000CARNE SUINA C/PELE                                0000000000000745010000000000000000            000000000000000000000000000000000000
010007498001593003Z*CAROL PAO SIRIO INTEGRAL kg                     0007490000000749110000000000000000            000000000000000000000000000000000000
000007498001593003Z*CAROL PAO SIRIO INTEGRAL kg                     0007490000000749110000000000000000            000000000000000000000000000000000000
010007603002690002CAROL MASSA PAO LO PRETO kg                       0007600000000760110000000000000000            000000000000000000000000000000000000
000007603002690002CAROL MASSA PAO LO PRETO kg                       0007600000000760110000000000000000            000000000000000000000000000000000000
010007665005487000LINGUICA SUINA DEFUMADA MAROCA kg                 0000000000000766010000000000000000            000000000000000000000000000000000000
000007665005487000LINGUICA SUINA DEFUMADA MAROCA kg                 0000000000000766010000000000000000            000000000000000000000000000000000000
010007740001997003CAROL PAO SEM GLUTEN*  kg                         0007740000000774110000000000000000            000000000000000000000000000000000000
000007740001997003CAROL PAO SEM GLUTEN*  kg                         0007740000000774110000000000000000            000000000000000000000000000000000000
010007818000997000PERA PACKHAMS                                     0000000000000781010000000000000000            000000000000000000000000000000000000
000007818000997000PERA PACKHAMS                                     0000000000000781010000000000000000            000000000000000000000000000000000000
010007863002485002CAROL CORUJA REDONDA kg                           0007860000000786110000000000000000            000000000000000000000000000000000000
000007863002485002CAROL CORUJA REDONDA kg                           0007860000000786110000000000000000            000000000000000000000000000000000000
010007870005997006Z*PEITO PERU SADIA DEFUMADO LIGHT kg              0007870000000787110000000000000000            000000000000000000000000000000000000
000007870005997006Z*PEITO PERU SADIA DEFUMADO LIGHT kg              0007870000000787110000000000000000            000000000000000000000000000000000000
010007900001997002Z**CAROL LUA MEL kg                               0007900000000790110000000000000000            000000000000000000000000000000000000
000007900001997002Z**CAROL LUA MEL kg                               0007900000000790110000000000000000            000000000000000000000000000000000000
010007917003685006HAMBURGUER COSTELA CAROL kg                       0007910000000791110000000000000000            000000000000000000000000000000000000
000007917003685006HAMBURGUER COSTELA CAROL kg                       0007910000000791110000000000000000            000000000000000000000000000000000000
010007948001997006Z*QUEIJO PRATO MONDAI kg                          0007940000000794110000000000000000            000000000000000000000000000000000000
000007948001997006Z*QUEIJO PRATO MONDAI kg                          0007940000000794110000000000000000            000000000000000000000000000000000000
010007986001997002CAROL ROSCA AMERICANA kg                          0007980000000798110000000000000000            000000000000000000000000000000000000
